{
  "address": "0x9fE46736679d2D9a65F0992F2272dE9f3c7fa6e0",
  "abi": [
    {
      "inputs": [
        {
          "internalType": "address",
          "name": "_token",
          "type": "address"
        }
      ],
      "stateMutability": "nonpayable",
      "type": "constructor"
    },
    {
      "anonymous": false,
      "inputs": [
        {
          "indexed": true,
          "internalType": "address",
          "name": "user",
          "type": "address"
        },
        {
          "indexed": false,
          "internalType": "bytes32",
          "name": "chefId",
          "type": "bytes32"
        }
      ],
      "name": "ChefBooked",
      "type": "event"
    },
    {
      "inputs": [
        {
          "internalType": "string",
          "name": "_name",
          "type": "string"
        },
        {
          "internalType": "address",
          "name": "_wallet",
          "type": "address"
        },
        {
          "internalType": "uint256",
          "name": "_fee",
          "type": "uint256"
        }
      ],
      "name": "addChef",
      "outputs": [],
      "stateMutability": "nonpayable",
      "type": "function"
    },
    {
      "inputs": [
        {
          "internalType": "bytes32",
          "name": "_chefId",
          "type": "bytes32"
        }
      ],
      "name": "bookChef",
      "outputs": [],
      "stateMutability": "nonpayable",
      "type": "function"
    },
    {
      "inputs": [
        {
          "internalType": "address",
          "name": "",
          "type": "address"
        }
      ],
      "name": "bookings",
      "outputs": [
        {
          "internalType": "bytes32",
          "name": "",
          "type": "bytes32"
        }
      ],
      "stateMutability": "view",
      "type": "function"
    },
    {
      "inputs": [
        {
          "internalType": "bytes32",
          "name": "",
          "type": "bytes32"
        }
      ],
      "name": "chefs",
      "outputs": [
        {
          "internalType": "bytes32",
          "name": "id",
          "type": "bytes32"
        },
        {
          "internalType": "string",
          "name": "name",
          "type": "string"
        },
        {
          "internalType": "address",
          "name": "wallet",
          "type": "address"
        },
        {
          "internalType": "uint256",
          "name": "fee",
          "type": "uint256"
        }
      ],
      "stateMutability": "view",
      "type": "function"
    },
    {
      "inputs": [
        {
          "internalType": "uint256",
          "name": "",
          "type": "uint256"
        }
      ],
      "name": "chefsList",
      "outputs": [
        {
          "internalType": "bytes32",
          "name": "",
          "type": "bytes32"
        }
      ],
      "stateMutability": "view",
      "type": "function"
    },
    {
      "inputs": [
        {
          "internalType": "bytes32",
          "name": "_chefId",
          "type": "bytes32"
        }
      ],
      "name": "getChef",
      "outputs": [
        {
          "internalType": "bytes32",
          "name": "",
          "type": "bytes32"
        },
        {
          "internalType": "string",
          "name": "",
          "type": "string"
        },
        {
          "internalType": "address",
          "name": "",
          "type": "address"
        },
        {
          "internalType": "uint256",
          "name": "",
          "type": "uint256"
        }
      ],
      "stateMutability": "view",
      "type": "function"
    },
    {
      "inputs": [],
      "name": "token",
      "outputs": [
        {
          "internalType": "contract ERC20",
          "name": "",
          "type": "address"
        }
      ],
      "stateMutability": "view",
      "type": "function"
    }
  ],
  "transactionHash": "0x03c0aca653e8f632a9dd3a21dd3d3fd7feec9cd796f3dd195ffb9ccba701079d",
  "args": [
    "0x5FbDB2315678afecb367f032d93F642f64180aa3"
  ],
  "numDeployments": 1,
  "solcInputHash": "35e1ae58bc651a11e7dfeb063dfcd4bd",
  "bytecode": "0x60806040523480156200001157600080fd5b50604051620011fb380380620011fb8339818101604052810190620000379190620000e8565b806000806101000a81548173ffffffffffffffffffffffffffffffffffffffff021916908373ffffffffffffffffffffffffffffffffffffffff160217905550506200011a565b600080fd5b600073ffffffffffffffffffffffffffffffffffffffff82169050919050565b6000620000b08262000083565b9050919050565b620000c281620000a3565b8114620000ce57600080fd5b50565b600081519050620000e281620000b7565b92915050565b6000602082840312156200010157620001006200007e565b5b60006200011184828501620000d1565b91505092915050565b6110d1806200012a6000396000f3fe608060405234801561001057600080fd5b506004361061007d5760003560e01c80637cf2beab1161005b5780637cf2beab14610104578063a0a934ff14610120578063c0299c1714610150578063fc0c546a146101805761007d565b80630f4b16c71461008257806312514f83146100b557806347505917146100e8575b600080fd5b61009c60048036038101906100979190610973565b61019e565b6040516100ac9493929190610aa2565b60405180910390f35b6100cf60048036038101906100ca9190610973565b610276565b6040516100df9493929190610aa2565b60405180910390f35b61010260048036038101906100fd9190610c7b565b6103bf565b005b61011e60048036038101906101199190610973565b6104cd565b005b61013a60048036038101906101359190610cea565b610826565b6040516101479190610d17565b60405180910390f35b61016a60048036038101906101659190610d32565b61083e565b6040516101779190610d17565b60405180910390f35b610188610862565b6040516101959190610dbe565b60405180910390f35b60026020528060005260406000206000915090508060000154908060010180546101c790610e08565b80601f01602080910402602001604051908101604052809291908181526020018280546101f390610e08565b80156102405780601f1061021557610100808354040283529160200191610240565b820191906000526020600020905b81548152906001019060200180831161022357829003601f168201915b5050505050908060020160009054906101000a900473ffffffffffffffffffffffffffffffffffffffff16908060030154905084565b60006060600080600060026000878152602001908152602001600020604051806080016040529081600082015481526020016001820180546102b790610e08565b80601f01602080910402602001604051908101604052809291908181526020018280546102e390610e08565b80156103305780601f1061030557610100808354040283529160200191610330565b820191906000526020600020905b81548152906001019060200180831161031357829003601f168201915b505050505081526020016002820160009054906101000a900473ffffffffffffffffffffffffffffffffffffffff1673ffffffffffffffffffffffffffffffffffffffff1673ffffffffffffffffffffffffffffffffffffffff168152602001600382015481525050905080600001518160200151826040015183606001519450945094509450509193509193565b600180546103cd9190610e69565b6001819055506000600154846040516020016103ea929190610f1c565b60405160208183030381529060405280519060200120905060405180608001604052808281526020018581526020018473ffffffffffffffffffffffffffffffffffffffff1681526020018381525060026000838152602001908152602001600020600082015181600001556020820151816001019080519060200190610472929190610886565b5060408201518160020160006101000a81548173ffffffffffffffffffffffffffffffffffffffff021916908373ffffffffffffffffffffffffffffffffffffffff1602179055506060820151816003015590505050505050565b6000600260008381526020019081526020016000206040518060800160405290816000820154815260200160018201805461050790610e08565b80601f016020809104026020016040519081016040528092919081815260200182805461053390610e08565b80156105805780601f1061055557610100808354040283529160200191610580565b820191906000526020600020905b81548152906001019060200180831161056357829003601f168201915b505050505081526020016002820160009054906101000a900473ffffffffffffffffffffffffffffffffffffffff1673ffffffffffffffffffffffffffffffffffffffff1673ffffffffffffffffffffffffffffffffffffffff1681526020016003820154815250509050806060015160008054906101000a900473ffffffffffffffffffffffffffffffffffffffff1673ffffffffffffffffffffffffffffffffffffffff166370a08231336040518263ffffffff1660e01b81526004016106499190610f44565b60206040518083038186803b15801561066157600080fd5b505afa158015610675573d6000803e3d6000fd5b505050506040513d601f19601f820116820180604052508101906106999190610f74565b10156106da576040517f08c379a00000000000000000000000000000000000000000000000000000000081526004016106d190610fed565b60405180910390fd5b60008054906101000a900473ffffffffffffffffffffffffffffffffffffffff1673ffffffffffffffffffffffffffffffffffffffff1663a9059cbb826040015183606001516040518363ffffffff1660e01b815260040161073d92919061100d565b602060405180830381600087803b15801561075757600080fd5b505af115801561076b573d6000803e3d6000fd5b505050506040513d601f19601f8201168201806040525081019061078f919061106e565b5081600460003373ffffffffffffffffffffffffffffffffffffffff1673ffffffffffffffffffffffffffffffffffffffff168152602001908152602001600020819055503373ffffffffffffffffffffffffffffffffffffffff167ffe6400498b4af70e0ceab7d6f4d52b731d43bfac6a0a14a50e868cb782c79f828360405161081a9190610d17565b60405180910390a25050565b60046020528060005260406000206000915090505481565b6003818154811061084e57600080fd5b906000526020600020016000915090505481565b60008054906101000a900473ffffffffffffffffffffffffffffffffffffffff1681565b82805461089290610e08565b90600052602060002090601f0160209004810192826108b457600085556108fb565b82601f106108cd57805160ff19168380011785556108fb565b828001600101855582156108fb579182015b828111156108fa5782518255916020019190600101906108df565b5b509050610908919061090c565b5090565b5b8082111561092557600081600090555060010161090d565b5090565b6000604051905090565b600080fd5b600080fd5b6000819050919050565b6109508161093d565b811461095b57600080fd5b50565b60008135905061096d81610947565b92915050565b60006020828403121561098957610988610933565b5b60006109978482850161095e565b91505092915050565b6109a98161093d565b82525050565b600081519050919050565b600082825260208201905092915050565b60005b838110156109e95780820151818401526020810190506109ce565b838111156109f8576000848401525b50505050565b6000601f19601f8301169050919050565b6000610a1a826109af565b610a2481856109ba565b9350610a348185602086016109cb565b610a3d816109fe565b840191505092915050565b600073ffffffffffffffffffffffffffffffffffffffff82169050919050565b6000610a7382610a48565b9050919050565b610a8381610a68565b82525050565b6000819050919050565b610a9c81610a89565b82525050565b6000608082019050610ab760008301876109a0565b8181036020830152610ac98186610a0f565b9050610ad86040830185610a7a565b610ae56060830184610a93565b95945050505050565b600080fd5b600080fd5b7f4e487b7100000000000000000000000000000000000000000000000000000000600052604160045260246000fd5b610b30826109fe565b810181811067ffffffffffffffff82111715610b4f57610b4e610af8565b5b80604052505050565b6000610b62610929565b9050610b6e8282610b27565b919050565b600067ffffffffffffffff821115610b8e57610b8d610af8565b5b610b97826109fe565b9050602081019050919050565b82818337600083830152505050565b6000610bc6610bc184610b73565b610b58565b905082815260208101848484011115610be257610be1610af3565b5b610bed848285610ba4565b509392505050565b600082601f830112610c0a57610c09610aee565b5b8135610c1a848260208601610bb3565b91505092915050565b610c2c81610a68565b8114610c3757600080fd5b50565b600081359050610c4981610c23565b92915050565b610c5881610a89565b8114610c6357600080fd5b50565b600081359050610c7581610c4f565b92915050565b600080600060608486031215610c9457610c93610933565b5b600084013567ffffffffffffffff811115610cb257610cb1610938565b5b610cbe86828701610bf5565b9350506020610ccf86828701610c3a565b9250506040610ce086828701610c66565b9150509250925092565b600060208284031215610d0057610cff610933565b5b6000610d0e84828501610c3a565b91505092915050565b6000602082019050610d2c60008301846109a0565b92915050565b600060208284031215610d4857610d47610933565b5b6000610d5684828501610c66565b91505092915050565b6000819050919050565b6000610d84610d7f610d7a84610a48565b610d5f565b610a48565b9050919050565b6000610d9682610d69565b9050919050565b6000610da882610d8b565b9050919050565b610db881610d9d565b82525050565b6000602082019050610dd36000830184610daf565b92915050565b7f4e487b7100000000000000000000000000000000000000000000000000000000600052602260045260246000fd5b60006002820490506001821680610e2057607f821691505b60208210811415610e3457610e33610dd9565b5b50919050565b7f4e487b7100000000000000000000000000000000000000000000000000000000600052601160045260246000fd5b6000610e7482610a89565b9150610e7f83610a89565b9250827fffffffffffffffffffffffffffffffffffffffffffffffffffffffffffffffff03821115610eb457610eb3610e3a565b5b828201905092915050565b6000819050919050565b610eda610ed582610a89565b610ebf565b82525050565b600081905092915050565b6000610ef6826109af565b610f008185610ee0565b9350610f108185602086016109cb565b80840191505092915050565b6000610f288285610ec9565b602082019150610f388284610eeb565b91508190509392505050565b6000602082019050610f596000830184610a7a565b92915050565b600081519050610f6e81610c4f565b92915050565b600060208284031215610f8a57610f89610933565b5b6000610f9884828501610f5f565b91505092915050565b7f496e73756666696369656e7420546f6b656e0000000000000000000000000000600082015250565b6000610fd76012836109ba565b9150610fe282610fa1565b602082019050919050565b6000602082019050818103600083015261100681610fca565b9050919050565b60006040820190506110226000830185610a7a565b61102f6020830184610a93565b9392505050565b60008115159050919050565b61104b81611036565b811461105657600080fd5b50565b60008151905061106881611042565b92915050565b60006020828403121561108457611083610933565b5b600061109284828501611059565b9150509291505056fea26469706673582212208856741df089f9d178e00fcceff83aa98a6612a08fb51f4037b10b347c0452ce64736f6c63430008080033",
  "devdoc": {
    "kind": "dev",
    "methods": {},
    "version": 1
  },
  "userdoc": {
    "kind": "user",
    "methods": {},
    "version": 1
  },
  "storageLayout": {
    "storage": [
      {
        "astId": 2539,
        "contract": "contracts/FoodieBooking.sol:FoodieBooking",
        "label": "token",
        "offset": 0,
        "slot": "0",
        "type": "t_contract(ERC20)698"
      },
      {
        "astId": 2550,
        "contract": "contracts/FoodieBooking.sol:FoodieBooking",
        "label": "chefCounter",
        "offset": 0,
        "slot": "1",
        "type": "t_uint256"
      },
      {
        "astId": 2555,
        "contract": "contracts/FoodieBooking.sol:FoodieBooking",
        "label": "chefs",
        "offset": 0,
        "slot": "2",
        "type": "t_mapping(t_bytes32,t_struct(Chef)2548_storage)"
      },
      {
        "astId": 2558,
        "contract": "contracts/FoodieBooking.sol:FoodieBooking",
        "label": "chefsList",
        "offset": 0,
        "slot": "3",
        "type": "t_array(t_bytes32)dyn_storage"
      },
      {
        "astId": 2568,
        "contract": "contracts/FoodieBooking.sol:FoodieBooking",
        "label": "bookings",
        "offset": 0,
        "slot": "4",
        "type": "t_mapping(t_address,t_bytes32)"
      }
    ],
    "types": {
      "t_address": {
        "encoding": "inplace",
        "label": "address",
        "numberOfBytes": "20"
      },
      "t_array(t_bytes32)dyn_storage": {
        "base": "t_bytes32",
        "encoding": "dynamic_array",
        "label": "bytes32[]",
        "numberOfBytes": "32"
      },
      "t_bytes32": {
        "encoding": "inplace",
        "label": "bytes32",
        "numberOfBytes": "32"
      },
      "t_contract(ERC20)698": {
        "encoding": "inplace",
        "label": "contract ERC20",
        "numberOfBytes": "20"
      },
      "t_mapping(t_address,t_bytes32)": {
        "encoding": "mapping",
        "key": "t_address",
        "label": "mapping(address => bytes32)",
        "numberOfBytes": "32",
        "value": "t_bytes32"
      },
      "t_mapping(t_bytes32,t_struct(Chef)2548_storage)": {
        "encoding": "mapping",
        "key": "t_bytes32",
        "label": "mapping(bytes32 => struct FoodieBooking.Chef)",
        "numberOfBytes": "32",
        "value": "t_struct(Chef)2548_storage"
      },
      "t_string_storage": {
        "encoding": "bytes",
        "label": "string",
        "numberOfBytes": "32"
      },
      "t_struct(Chef)2548_storage": {
        "encoding": "inplace",
        "label": "struct FoodieBooking.Chef",
        "members": [
          {
            "astId": 2541,
            "contract": "contracts/FoodieBooking.sol:FoodieBooking",
            "label": "id",
            "offset": 0,
            "slot": "0",
            "type": "t_bytes32"
          },
          {
            "astId": 2543,
            "contract": "contracts/FoodieBooking.sol:FoodieBooking",
            "label": "name",
            "offset": 0,
            "slot": "1",
            "type": "t_string_storage"
          },
          {
            "astId": 2545,
            "contract": "contracts/FoodieBooking.sol:FoodieBooking",
            "label": "wallet",
            "offset": 0,
            "slot": "2",
            "type": "t_address"
          },
          {
            "astId": 2547,
            "contract": "contracts/FoodieBooking.sol:FoodieBooking",
            "label": "fee",
            "offset": 0,
            "slot": "3",
            "type": "t_uint256"
          }
        ],
        "numberOfBytes": "128"
      },
      "t_uint256": {
        "encoding": "inplace",
        "label": "uint256",
        "numberOfBytes": "32"
      }
    }
  }
}