{
  "address": "0xe7f1725E7734CE288F8367e1Bb143E90bb3F0512",
  "abi": [
    {
      "inputs": [
        {
          "internalType": "address",
          "name": "_tokenAddress",
          "type": "address"
        },
        {
          "internalType": "address",
          "name": "_tokenOwner",
          "type": "address"
        }
      ],
      "stateMutability": "nonpayable",
      "type": "constructor"
    },
    {
      "anonymous": false,
      "inputs": [
        {
          "indexed": true,
          "internalType": "address",
          "name": "owner",
          "type": "address"
        },
        {
          "indexed": true,
          "internalType": "address",
          "name": "approved",
          "type": "address"
        },
        {
          "indexed": true,
          "internalType": "uint256",
          "name": "tokenId",
          "type": "uint256"
        }
      ],
      "name": "Approval",
      "type": "event"
    },
    {
      "anonymous": false,
      "inputs": [
        {
          "indexed": true,
          "internalType": "address",
          "name": "owner",
          "type": "address"
        },
        {
          "indexed": true,
          "internalType": "address",
          "name": "operator",
          "type": "address"
        },
        {
          "indexed": false,
          "internalType": "bool",
          "name": "approved",
          "type": "bool"
        }
      ],
      "name": "ApprovalForAll",
      "type": "event"
    },
    {
      "anonymous": false,
      "inputs": [
        {
          "indexed": true,
          "internalType": "uint256",
          "name": "nftId",
          "type": "uint256"
        },
        {
          "indexed": false,
          "internalType": "address",
          "name": "minter",
          "type": "address"
        }
      ],
      "name": "NftMinted",
      "type": "event"
    },
    {
      "anonymous": false,
      "inputs": [
        {
          "indexed": true,
          "internalType": "address",
          "name": "previousOwner",
          "type": "address"
        },
        {
          "indexed": true,
          "internalType": "address",
          "name": "newOwner",
          "type": "address"
        }
      ],
      "name": "OwnershipTransferred",
      "type": "event"
    },
    {
      "anonymous": false,
      "inputs": [
        {
          "indexed": true,
          "internalType": "address",
          "name": "from",
          "type": "address"
        },
        {
          "indexed": true,
          "internalType": "address",
          "name": "to",
          "type": "address"
        },
        {
          "indexed": true,
          "internalType": "uint256",
          "name": "tokenId",
          "type": "uint256"
        }
      ],
      "name": "Transfer",
      "type": "event"
    },
    {
      "inputs": [
        {
          "internalType": "address",
          "name": "to",
          "type": "address"
        },
        {
          "internalType": "uint256",
          "name": "tokenId",
          "type": "uint256"
        }
      ],
      "name": "approve",
      "outputs": [],
      "stateMutability": "nonpayable",
      "type": "function"
    },
    {
      "inputs": [
        {
          "internalType": "address",
          "name": "owner",
          "type": "address"
        }
      ],
      "name": "balanceOf",
      "outputs": [
        {
          "internalType": "uint256",
          "name": "",
          "type": "uint256"
        }
      ],
      "stateMutability": "view",
      "type": "function"
    },
    {
      "inputs": [
        {
          "internalType": "uint256",
          "name": "tokenId",
          "type": "uint256"
        }
      ],
      "name": "getApproved",
      "outputs": [
        {
          "internalType": "address",
          "name": "",
          "type": "address"
        }
      ],
      "stateMutability": "view",
      "type": "function"
    },
    {
      "inputs": [
        {
          "internalType": "address",
          "name": "owner",
          "type": "address"
        },
        {
          "internalType": "address",
          "name": "operator",
          "type": "address"
        }
      ],
      "name": "isApprovedForAll",
      "outputs": [
        {
          "internalType": "bool",
          "name": "",
          "type": "bool"
        }
      ],
      "stateMutability": "view",
      "type": "function"
    },
    {
      "inputs": [
        {
          "internalType": "string",
          "name": "_nftUri",
          "type": "string"
        }
      ],
      "name": "mintNFT",
      "outputs": [],
      "stateMutability": "nonpayable",
      "type": "function"
    },
    {
      "inputs": [],
      "name": "name",
      "outputs": [
        {
          "internalType": "string",
          "name": "",
          "type": "string"
        }
      ],
      "stateMutability": "view",
      "type": "function"
    },
    {
      "inputs": [],
      "name": "owner",
      "outputs": [
        {
          "internalType": "address",
          "name": "",
          "type": "address"
        }
      ],
      "stateMutability": "view",
      "type": "function"
    },
    {
      "inputs": [
        {
          "internalType": "uint256",
          "name": "tokenId",
          "type": "uint256"
        }
      ],
      "name": "ownerOf",
      "outputs": [
        {
          "internalType": "address",
          "name": "",
          "type": "address"
        }
      ],
      "stateMutability": "view",
      "type": "function"
    },
    {
      "inputs": [],
      "name": "renounceOwnership",
      "outputs": [],
      "stateMutability": "nonpayable",
      "type": "function"
    },
    {
      "inputs": [
        {
          "internalType": "address",
          "name": "from",
          "type": "address"
        },
        {
          "internalType": "address",
          "name": "to",
          "type": "address"
        },
        {
          "internalType": "uint256",
          "name": "tokenId",
          "type": "uint256"
        }
      ],
      "name": "safeTransferFrom",
      "outputs": [],
      "stateMutability": "nonpayable",
      "type": "function"
    },
    {
      "inputs": [
        {
          "internalType": "address",
          "name": "from",
          "type": "address"
        },
        {
          "internalType": "address",
          "name": "to",
          "type": "address"
        },
        {
          "internalType": "uint256",
          "name": "tokenId",
          "type": "uint256"
        },
        {
          "internalType": "bytes",
          "name": "data",
          "type": "bytes"
        }
      ],
      "name": "safeTransferFrom",
      "outputs": [],
      "stateMutability": "nonpayable",
      "type": "function"
    },
    {
      "inputs": [
        {
          "internalType": "address",
          "name": "operator",
          "type": "address"
        },
        {
          "internalType": "bool",
          "name": "approved",
          "type": "bool"
        }
      ],
      "name": "setApprovalForAll",
      "outputs": [],
      "stateMutability": "nonpayable",
      "type": "function"
    },
    {
      "inputs": [
        {
          "internalType": "bytes4",
          "name": "interfaceId",
          "type": "bytes4"
        }
      ],
      "name": "supportsInterface",
      "outputs": [
        {
          "internalType": "bool",
          "name": "",
          "type": "bool"
        }
      ],
      "stateMutability": "view",
      "type": "function"
    },
    {
      "inputs": [],
      "name": "symbol",
      "outputs": [
        {
          "internalType": "string",
          "name": "",
          "type": "string"
        }
      ],
      "stateMutability": "view",
      "type": "function"
    },
    {
      "inputs": [],
      "name": "token",
      "outputs": [
        {
          "internalType": "contract ERC20",
          "name": "",
          "type": "address"
        }
      ],
      "stateMutability": "view",
      "type": "function"
    },
    {
      "inputs": [],
      "name": "tokenCounter",
      "outputs": [
        {
          "internalType": "uint256",
          "name": "",
          "type": "uint256"
        }
      ],
      "stateMutability": "view",
      "type": "function"
    },
    {
      "inputs": [
        {
          "internalType": "uint256",
          "name": "tokenId",
          "type": "uint256"
        }
      ],
      "name": "tokenURI",
      "outputs": [
        {
          "internalType": "string",
          "name": "",
          "type": "string"
        }
      ],
      "stateMutability": "view",
      "type": "function"
    },
    {
      "inputs": [
        {
          "internalType": "address",
          "name": "from",
          "type": "address"
        },
        {
          "internalType": "address",
          "name": "to",
          "type": "address"
        },
        {
          "internalType": "uint256",
          "name": "tokenId",
          "type": "uint256"
        }
      ],
      "name": "transferFrom",
      "outputs": [],
      "stateMutability": "nonpayable",
      "type": "function"
    },
    {
      "inputs": [
        {
          "internalType": "address",
          "name": "newOwner",
          "type": "address"
        }
      ],
      "name": "transferOwnership",
      "outputs": [],
      "stateMutability": "nonpayable",
      "type": "function"
    }
  ],
  "transactionHash": "0x6845cf6c5efb86e7870b33bdd59336d4107d87b7e680192070fa740895b33bfc",
  "args": [
    "0x5FbDB2315678afecb367f032d93F642f64180aa3",
    "0xf39Fd6e51aad88F6F4ce6aB8827279cffFb92266"
  ],
  "numDeployments": 1,
  "solcInputHash": "f3a98d5906110c930d95192e7b3ec37d",
  "bytecode": "0x60a06040523480156200001157600080fd5b50604051620039dd380380620039dd8339818101604052810190620000379190620005ee565b6040518060400160405280600a81526020017f466f6f646965204e4654000000000000000000000000000000000000000000008152506040518060400160405280600481526020017f464f4f44000000000000000000000000000000000000000000000000000000008152508160009080519060200190620000bb929190620004d4565b508060019080519060200190620000d4929190620004d4565b505050620000f7620000eb6200033760201b60201c565b6200033f60201b60201c565b81600860006101000a81548173ffffffffffffffffffffffffffffffffffffffff021916908373ffffffffffffffffffffffffffffffffffffffff1602179055508073ffffffffffffffffffffffffffffffffffffffff1660808173ffffffffffffffffffffffffffffffffffffffff1660601b81525050600860009054906101000a900473ffffffffffffffffffffffffffffffffffffffff1673ffffffffffffffffffffffffffffffffffffffff1663095ea7b3306b033b2e3c9fd0803ce80000006040518363ffffffff1660e01b8152600401620001da9291906200069d565b602060405180830381600087803b158015620001f557600080fd5b505af11580156200020a573d6000803e3d6000fd5b505050506040513d601f19601f8201168201806040525081019062000230919062000707565b506200032f6040518060400160405280600e81526020017f746f6b656e2062616c616e636520000000000000000000000000000000000000815250600860009054906101000a900473ffffffffffffffffffffffffffffffffffffffff1673ffffffffffffffffffffffffffffffffffffffff1663dd62ed3e33306040518363ffffffff1660e01b8152600401620002ca92919062000739565b60206040518083038186803b158015620002e357600080fd5b505afa158015620002f8573d6000803e3d6000fd5b505050506040513d601f19601f820116820180604052508101906200031e919062000797565b6200040560201b62000d981760201c565b505062000917565b600033905090565b6000600760009054906101000a900473ffffffffffffffffffffffffffffffffffffffff16905081600760006101000a81548173ffffffffffffffffffffffffffffffffffffffff021916908373ffffffffffffffffffffffffffffffffffffffff1602179055508173ffffffffffffffffffffffffffffffffffffffff168173ffffffffffffffffffffffffffffffffffffffff167f8be0079c531659141344cd1fd0a4f28419497f9722a3daafe3b4186f6b6457e060405160405180910390a35050565b620004a782826040516024016200041e9291906200087e565b6040516020818303038152906040527f9710a9d0000000000000000000000000000000000000000000000000000000007bffffffffffffffffffffffffffffffffffffffffffffffffffffffff19166020820180517bffffffffffffffffffffffffffffffffffffffffffffffffffffffff8381831617835250505050620004ab60201b60201c565b5050565b60008151905060006a636f6e736f6c652e6c6f679050602083016000808483855afa5050505050565b828054620004e290620008e1565b90600052602060002090601f01602090048101928262000506576000855562000552565b82601f106200052157805160ff191683800117855562000552565b8280016001018555821562000552579182015b828111156200055157825182559160200191906001019062000534565b5b50905062000561919062000565565b5090565b5b808211156200058057600081600090555060010162000566565b5090565b600080fd5b600073ffffffffffffffffffffffffffffffffffffffff82169050919050565b6000620005b68262000589565b9050919050565b620005c881620005a9565b8114620005d457600080fd5b50565b600081519050620005e881620005bd565b92915050565b6000806040838503121562000608576200060762000584565b5b60006200061885828601620005d7565b92505060206200062b85828601620005d7565b9150509250929050565b6200064081620005a9565b82525050565b6000819050919050565b6000819050919050565b6000819050919050565b6000620006856200067f620006798462000646565b6200065a565b62000650565b9050919050565b620006978162000664565b82525050565b6000604082019050620006b4600083018562000635565b620006c360208301846200068c565b9392505050565b60008115159050919050565b620006e181620006ca565b8114620006ed57600080fd5b50565b6000815190506200070181620006d6565b92915050565b60006020828403121562000720576200071f62000584565b5b60006200073084828501620006f0565b91505092915050565b600060408201905062000750600083018562000635565b6200075f602083018462000635565b9392505050565b620007718162000650565b81146200077d57600080fd5b50565b600081519050620007918162000766565b92915050565b600060208284031215620007b057620007af62000584565b5b6000620007c08482850162000780565b91505092915050565b600081519050919050565b600082825260208201905092915050565b60005b8381101562000805578082015181840152602081019050620007e8565b8381111562000815576000848401525b50505050565b6000601f19601f8301169050919050565b60006200083982620007c9565b620008458185620007d4565b935062000857818560208601620007e5565b62000862816200081b565b840191505092915050565b620008788162000650565b82525050565b600060408201905081810360008301526200089a81856200082c565b9050620008ab60208301846200086d565b9392505050565b7f4e487b7100000000000000000000000000000000000000000000000000000000600052602260045260246000fd5b60006002820490506001821680620008fa57607f821691505b60208210811415620009115762000910620008b2565b5b50919050565b60805160601c6130a7620009366000396000610c9b01526130a76000f3fe608060405234801561001057600080fd5b50600436106101215760003560e01c80638da5cb5b116100ad578063d082e38111610071578063d082e38114610306578063e985e9c514610324578063f2fde38b14610354578063fb37e88314610370578063fc0c546a1461038c57610121565b80638da5cb5b1461026257806395d89b4114610280578063a22cb4651461029e578063b88d4fde146102ba578063c87b56dd146102d657610121565b806323b872dd116100f457806323b872dd146101c057806342842e0e146101dc5780636352211e146101f857806370a0823114610228578063715018a61461025857610121565b806301ffc9a71461012657806306fdde0314610156578063081812fc14610174578063095ea7b3146101a4575b600080fd5b610140600480360381019061013b9190611dc2565b6103aa565b60405161014d9190611e0a565b60405180910390f35b61015e61048c565b60405161016b9190611ebe565b60405180910390f35b61018e60048036038101906101899190611f16565b61051e565b60405161019b9190611f84565b60405180910390f35b6101be60048036038101906101b99190611fcb565b610564565b005b6101da60048036038101906101d5919061200b565b61067c565b005b6101f660048036038101906101f1919061200b565b6106dc565b005b610212600480360381019061020d9190611f16565b6106fc565b60405161021f9190611f84565b60405180910390f35b610242600480360381019061023d919061205e565b6107ae565b60405161024f919061209a565b60405180910390f35b610260610866565b005b61026a61087a565b6040516102779190611f84565b60405180910390f35b6102886108a4565b6040516102959190611ebe565b60405180910390f35b6102b860048036038101906102b391906120e1565b610936565b005b6102d460048036038101906102cf9190612256565b61094c565b005b6102f060048036038101906102eb9190611f16565b6109ae565b6040516102fd9190611ebe565b60405180910390f35b61030e610ac1565b60405161031b919061209a565b60405180910390f35b61033e600480360381019061033991906122d9565b610ac7565b60405161034b9190611e0a565b60405180910390f35b61036e6004803603810190610369919061205e565b610b5b565b005b61038a600480360381019061038591906123ba565b610bdf565b005b610394610d72565b6040516103a19190612462565b60405180910390f35b60007f80ac58cd000000000000000000000000000000000000000000000000000000007bffffffffffffffffffffffffffffffffffffffffffffffffffffffff1916827bffffffffffffffffffffffffffffffffffffffffffffffffffffffff1916148061047557507f5b5e139f000000000000000000000000000000000000000000000000000000007bffffffffffffffffffffffffffffffffffffffffffffffffffffffff1916827bffffffffffffffffffffffffffffffffffffffffffffffffffffffff1916145b80610485575061048482610e34565b5b9050919050565b60606000805461049b906124ac565b80601f01602080910402602001604051908101604052809291908181526020018280546104c7906124ac565b80156105145780601f106104e957610100808354040283529160200191610514565b820191906000526020600020905b8154815290600101906020018083116104f757829003601f168201915b5050505050905090565b600061052982610e9e565b6004600083815260200190815260200160002060009054906101000a900473ffffffffffffffffffffffffffffffffffffffff169050919050565b600061056f826106fc565b90508073ffffffffffffffffffffffffffffffffffffffff168373ffffffffffffffffffffffffffffffffffffffff1614156105e0576040517f08c379a00000000000000000000000000000000000000000000000000000000081526004016105d790612550565b60405180910390fd5b8073ffffffffffffffffffffffffffffffffffffffff166105ff610ee9565b73ffffffffffffffffffffffffffffffffffffffff16148061062e575061062d81610628610ee9565b610ac7565b5b61066d576040517f08c379a0000000000000000000000000000000000000000000000000000000008152600401610664906125e2565b60405180910390fd5b6106778383610ef1565b505050565b61068d610687610ee9565b82610faa565b6106cc576040517f08c379a00000000000000000000000000000000000000000000000000000000081526004016106c390612674565b60405180910390fd5b6106d783838361103f565b505050565b6106f78383836040518060200160405280600081525061094c565b505050565b6000806002600084815260200190815260200160002060009054906101000a900473ffffffffffffffffffffffffffffffffffffffff169050600073ffffffffffffffffffffffffffffffffffffffff168173ffffffffffffffffffffffffffffffffffffffff1614156107a5576040517f08c379a000000000000000000000000000000000000000000000000000000000815260040161079c906126e0565b60405180910390fd5b80915050919050565b60008073ffffffffffffffffffffffffffffffffffffffff168273ffffffffffffffffffffffffffffffffffffffff16141561081f576040517f08c379a000000000000000000000000000000000000000000000000000000000815260040161081690612772565b60405180910390fd5b600360008373ffffffffffffffffffffffffffffffffffffffff1673ffffffffffffffffffffffffffffffffffffffff168152602001908152602001600020549050919050565b61086e6112a6565b6108786000611324565b565b6000600760009054906101000a900473ffffffffffffffffffffffffffffffffffffffff16905090565b6060600180546108b3906124ac565b80601f01602080910402602001604051908101604052809291908181526020018280546108df906124ac565b801561092c5780601f106109015761010080835404028352916020019161092c565b820191906000526020600020905b81548152906001019060200180831161090f57829003601f168201915b5050505050905090565b610948610941610ee9565b83836113ea565b5050565b61095d610957610ee9565b83610faa565b61099c576040517f08c379a000000000000000000000000000000000000000000000000000000000815260040161099390612674565b60405180910390fd5b6109a884848484611557565b50505050565b60606109b982610e9e565b60006006600084815260200190815260200160002080546109d9906124ac565b80601f0160208091040260200160405190810160405280929190818152602001828054610a05906124ac565b8015610a525780601f10610a2757610100808354040283529160200191610a52565b820191906000526020600020905b815481529060010190602001808311610a3557829003601f168201915b505050505090506000610a636115b3565b9050600081511415610a79578192505050610abc565b600082511115610aae578082604051602001610a969291906127ce565b60405160208183030381529060405292505050610abc565b610ab7846115ca565b925050505b919050565b60095481565b6000600560008473ffffffffffffffffffffffffffffffffffffffff1673ffffffffffffffffffffffffffffffffffffffff16815260200190815260200160002060008373ffffffffffffffffffffffffffffffffffffffff1673ffffffffffffffffffffffffffffffffffffffff16815260200190815260200160002060009054906101000a900460ff16905092915050565b610b636112a6565b600073ffffffffffffffffffffffffffffffffffffffff168173ffffffffffffffffffffffffffffffffffffffff161415610bd3576040517f08c379a0000000000000000000000000000000000000000000000000000000008152600401610bca90612864565b60405180910390fd5b610bdc81611324565b50565b6000610bea336107ae565b1115610c2b576040517f08c379a0000000000000000000000000000000000000000000000000000000008152600401610c22906128d0565b60405180910390fd5b600060095490506001600954610c41919061291f565b600981905550610c513382611632565b610c5b8183611650565b600860009054906101000a900473ffffffffffffffffffffffffffffffffffffffff1673ffffffffffffffffffffffffffffffffffffffff166323b872dd7f000000000000000000000000000000000000000000000000000000000000000033683635c9adc5dea000006040518463ffffffff1660e01b8152600401610ce3939291906129b0565b602060405180830381600087803b158015610cfd57600080fd5b505af1158015610d11573d6000803e3d6000fd5b505050506040513d601f19601f82011682018060405250810190610d3591906129fc565b50807f769eff512f395b679667e0062a0e31dad5d22dbc7e6b87f16c3de7e85e66346033604051610d669190611f84565b60405180910390a25050565b600860009054906101000a900473ffffffffffffffffffffffffffffffffffffffff1681565b610e308282604051602401610dae929190612a29565b6040516020818303038152906040527f9710a9d0000000000000000000000000000000000000000000000000000000007bffffffffffffffffffffffffffffffffffffffffffffffffffffffff19166020820180517bffffffffffffffffffffffffffffffffffffffffffffffffffffffff83818316178352505050506116c4565b5050565b60007f01ffc9a7000000000000000000000000000000000000000000000000000000007bffffffffffffffffffffffffffffffffffffffffffffffffffffffff1916827bffffffffffffffffffffffffffffffffffffffffffffffffffffffff1916149050919050565b610ea7816116ed565b610ee6576040517f08c379a0000000000000000000000000000000000000000000000000000000008152600401610edd906126e0565b60405180910390fd5b50565b600033905090565b816004600083815260200190815260200160002060006101000a81548173ffffffffffffffffffffffffffffffffffffffff021916908373ffffffffffffffffffffffffffffffffffffffff160217905550808273ffffffffffffffffffffffffffffffffffffffff16610f64836106fc565b73ffffffffffffffffffffffffffffffffffffffff167f8c5be1e5ebec7d5bd14f71427d1e84f3dd0314c0f7b2291e5b200ac8c7c3b92560405160405180910390a45050565b600080610fb6836106fc565b90508073ffffffffffffffffffffffffffffffffffffffff168473ffffffffffffffffffffffffffffffffffffffff161480610ff85750610ff78185610ac7565b5b8061103657508373ffffffffffffffffffffffffffffffffffffffff1661101e8461051e565b73ffffffffffffffffffffffffffffffffffffffff16145b91505092915050565b8273ffffffffffffffffffffffffffffffffffffffff1661105f826106fc565b73ffffffffffffffffffffffffffffffffffffffff16146110b5576040517f08c379a00000000000000000000000000000000000000000000000000000000081526004016110ac90612acb565b60405180910390fd5b600073ffffffffffffffffffffffffffffffffffffffff168273ffffffffffffffffffffffffffffffffffffffff161415611125576040517f08c379a000000000000000000000000000000000000000000000000000000000815260040161111c90612b5d565b60405180910390fd5b611130838383611759565b61113b600082610ef1565b6001600360008573ffffffffffffffffffffffffffffffffffffffff1673ffffffffffffffffffffffffffffffffffffffff168152602001908152602001600020600082825461118b9190612b7d565b925050819055506001600360008473ffffffffffffffffffffffffffffffffffffffff1673ffffffffffffffffffffffffffffffffffffffff16815260200190815260200160002060008282546111e2919061291f565b92505081905550816002600083815260200190815260200160002060006101000a81548173ffffffffffffffffffffffffffffffffffffffff021916908373ffffffffffffffffffffffffffffffffffffffff160217905550808273ffffffffffffffffffffffffffffffffffffffff168473ffffffffffffffffffffffffffffffffffffffff167fddf252ad1be2c89b69c2b068fc378daa952ba7f163c4a11628f55a4df523b3ef60405160405180910390a46112a183838361175e565b505050565b6112ae610ee9565b73ffffffffffffffffffffffffffffffffffffffff166112cc61087a565b73ffffffffffffffffffffffffffffffffffffffff1614611322576040517f08c379a000000000000000000000000000000000000000000000000000000000815260040161131990612bfd565b60405180910390fd5b565b6000600760009054906101000a900473ffffffffffffffffffffffffffffffffffffffff16905081600760006101000a81548173ffffffffffffffffffffffffffffffffffffffff021916908373ffffffffffffffffffffffffffffffffffffffff1602179055508173ffffffffffffffffffffffffffffffffffffffff168173ffffffffffffffffffffffffffffffffffffffff167f8be0079c531659141344cd1fd0a4f28419497f9722a3daafe3b4186f6b6457e060405160405180910390a35050565b8173ffffffffffffffffffffffffffffffffffffffff168373ffffffffffffffffffffffffffffffffffffffff161415611459576040517f08c379a000000000000000000000000000000000000000000000000000000000815260040161145090612c69565b60405180910390fd5b80600560008573ffffffffffffffffffffffffffffffffffffffff1673ffffffffffffffffffffffffffffffffffffffff16815260200190815260200160002060008473ffffffffffffffffffffffffffffffffffffffff1673ffffffffffffffffffffffffffffffffffffffff16815260200190815260200160002060006101000a81548160ff0219169083151502179055508173ffffffffffffffffffffffffffffffffffffffff168373ffffffffffffffffffffffffffffffffffffffff167f17307eab39ab6107e8899845ad3d59bd9653f200f220920489ca2b5937696c318360405161154a9190611e0a565b60405180910390a3505050565b61156284848461103f565b61156e84848484611763565b6115ad576040517f08c379a00000000000000000000000000000000000000000000000000000000081526004016115a490612cfb565b60405180910390fd5b50505050565b606060405180602001604052806000815250905090565b60606115d582610e9e565b60006115df6115b3565b905060008151116115ff576040518060200160405280600081525061162a565b80611609846118fa565b60405160200161161a9291906127ce565b6040516020818303038152906040525b915050919050565b61164c828260405180602001604052806000815250611a5b565b5050565b611659826116ed565b611698576040517f08c379a000000000000000000000000000000000000000000000000000000000815260040161168f90612d8d565b60405180910390fd5b806006600084815260200190815260200160002090805190602001906116bf929190611cb3565b505050565b60008151905060006a636f6e736f6c652e6c6f679050602083016000808483855afa5050505050565b60008073ffffffffffffffffffffffffffffffffffffffff166002600084815260200190815260200160002060009054906101000a900473ffffffffffffffffffffffffffffffffffffffff1673ffffffffffffffffffffffffffffffffffffffff1614159050919050565b505050565b505050565b60006117848473ffffffffffffffffffffffffffffffffffffffff16611ab6565b156118ed578373ffffffffffffffffffffffffffffffffffffffff1663150b7a026117ad610ee9565b8786866040518563ffffffff1660e01b81526004016117cf9493929190612e02565b602060405180830381600087803b1580156117e957600080fd5b505af192505050801561181a57506040513d601f19601f820116820180604052508101906118179190612e63565b60015b61189d573d806000811461184a576040519150601f19603f3d011682016040523d82523d6000602084013e61184f565b606091505b50600081511415611895576040517f08c379a000000000000000000000000000000000000000000000000000000000815260040161188c90612cfb565b60405180910390fd5b805181602001fd5b63150b7a0260e01b7bffffffffffffffffffffffffffffffffffffffffffffffffffffffff1916817bffffffffffffffffffffffffffffffffffffffffffffffffffffffff1916149150506118f2565b600190505b949350505050565b60606000821415611942576040518060400160405280600181526020017f30000000000000000000000000000000000000000000000000000000000000008152509050611a56565b600082905060005b6000821461197457808061195d90612e90565b915050600a8261196d9190612f08565b915061194a565b60008167ffffffffffffffff8111156119905761198f61212b565b5b6040519080825280601f01601f1916602001820160405280156119c25781602001600182028036833780820191505090505b5090505b60008514611a4f576001826119db9190612b7d565b9150600a856119ea9190612f39565b60306119f6919061291f565b60f81b818381518110611a0c57611a0b612f6a565b5b60200101907effffffffffffffffffffffffffffffffffffffffffffffffffffffffffffff1916908160001a905350600a85611a489190612f08565b94506119c6565b8093505050505b919050565b611a658383611ad9565b611a726000848484611763565b611ab1576040517f08c379a0000000000000000000000000000000000000000000000000000000008152600401611aa890612cfb565b60405180910390fd5b505050565b6000808273ffffffffffffffffffffffffffffffffffffffff163b119050919050565b600073ffffffffffffffffffffffffffffffffffffffff168273ffffffffffffffffffffffffffffffffffffffff161415611b49576040517f08c379a0000000000000000000000000000000000000000000000000000000008152600401611b4090612fe5565b60405180910390fd5b611b52816116ed565b15611b92576040517f08c379a0000000000000000000000000000000000000000000000000000000008152600401611b8990613051565b60405180910390fd5b611b9e60008383611759565b6001600360008473ffffffffffffffffffffffffffffffffffffffff1673ffffffffffffffffffffffffffffffffffffffff1681526020019081526020016000206000828254611bee919061291f565b92505081905550816002600083815260200190815260200160002060006101000a81548173ffffffffffffffffffffffffffffffffffffffff021916908373ffffffffffffffffffffffffffffffffffffffff160217905550808273ffffffffffffffffffffffffffffffffffffffff16600073ffffffffffffffffffffffffffffffffffffffff167fddf252ad1be2c89b69c2b068fc378daa952ba7f163c4a11628f55a4df523b3ef60405160405180910390a4611caf6000838361175e565b5050565b828054611cbf906124ac565b90600052602060002090601f016020900481019282611ce15760008555611d28565b82601f10611cfa57805160ff1916838001178555611d28565b82800160010185558215611d28579182015b82811115611d27578251825591602001919060010190611d0c565b5b509050611d359190611d39565b5090565b5b80821115611d52576000816000905550600101611d3a565b5090565b6000604051905090565b600080fd5b600080fd5b60007fffffffff0000000000000000000000000000000000000000000000000000000082169050919050565b611d9f81611d6a565b8114611daa57600080fd5b50565b600081359050611dbc81611d96565b92915050565b600060208284031215611dd857611dd7611d60565b5b6000611de684828501611dad565b91505092915050565b60008115159050919050565b611e0481611def565b82525050565b6000602082019050611e1f6000830184611dfb565b92915050565b600081519050919050565b600082825260208201905092915050565b60005b83811015611e5f578082015181840152602081019050611e44565b83811115611e6e576000848401525b50505050565b6000601f19601f8301169050919050565b6000611e9082611e25565b611e9a8185611e30565b9350611eaa818560208601611e41565b611eb381611e74565b840191505092915050565b60006020820190508181036000830152611ed88184611e85565b905092915050565b6000819050919050565b611ef381611ee0565b8114611efe57600080fd5b50565b600081359050611f1081611eea565b92915050565b600060208284031215611f2c57611f2b611d60565b5b6000611f3a84828501611f01565b91505092915050565b600073ffffffffffffffffffffffffffffffffffffffff82169050919050565b6000611f6e82611f43565b9050919050565b611f7e81611f63565b82525050565b6000602082019050611f996000830184611f75565b92915050565b611fa881611f63565b8114611fb357600080fd5b50565b600081359050611fc581611f9f565b92915050565b60008060408385031215611fe257611fe1611d60565b5b6000611ff085828601611fb6565b925050602061200185828601611f01565b9150509250929050565b60008060006060848603121561202457612023611d60565b5b600061203286828701611fb6565b935050602061204386828701611fb6565b925050604061205486828701611f01565b9150509250925092565b60006020828403121561207457612073611d60565b5b600061208284828501611fb6565b91505092915050565b61209481611ee0565b82525050565b60006020820190506120af600083018461208b565b92915050565b6120be81611def565b81146120c957600080fd5b50565b6000813590506120db816120b5565b92915050565b600080604083850312156120f8576120f7611d60565b5b600061210685828601611fb6565b9250506020612117858286016120cc565b9150509250929050565b600080fd5b600080fd5b7f4e487b7100000000000000000000000000000000000000000000000000000000600052604160045260246000fd5b61216382611e74565b810181811067ffffffffffffffff821117156121825761218161212b565b5b80604052505050565b6000612195611d56565b90506121a1828261215a565b919050565b600067ffffffffffffffff8211156121c1576121c061212b565b5b6121ca82611e74565b9050602081019050919050565b82818337600083830152505050565b60006121f96121f4846121a6565b61218b565b90508281526020810184848401111561221557612214612126565b5b6122208482856121d7565b509392505050565b600082601f83011261223d5761223c612121565b5b813561224d8482602086016121e6565b91505092915050565b600080600080608085870312156122705761226f611d60565b5b600061227e87828801611fb6565b945050602061228f87828801611fb6565b93505060406122a087828801611f01565b925050606085013567ffffffffffffffff8111156122c1576122c0611d65565b5b6122cd87828801612228565b91505092959194509250565b600080604083850312156122f0576122ef611d60565b5b60006122fe85828601611fb6565b925050602061230f85828601611fb6565b9150509250929050565b600067ffffffffffffffff8211156123345761233361212b565b5b61233d82611e74565b9050602081019050919050565b600061235d61235884612319565b61218b565b90508281526020810184848401111561237957612378612126565b5b6123848482856121d7565b509392505050565b600082601f8301126123a1576123a0612121565b5b81356123b184826020860161234a565b91505092915050565b6000602082840312156123d0576123cf611d60565b5b600082013567ffffffffffffffff8111156123ee576123ed611d65565b5b6123fa8482850161238c565b91505092915050565b6000819050919050565b600061242861242361241e84611f43565b612403565b611f43565b9050919050565b600061243a8261240d565b9050919050565b600061244c8261242f565b9050919050565b61245c81612441565b82525050565b60006020820190506124776000830184612453565b92915050565b7f4e487b7100000000000000000000000000000000000000000000000000000000600052602260045260246000fd5b600060028204905060018216806124c457607f821691505b602082108114156124d8576124d761247d565b5b50919050565b7f4552433732313a20617070726f76616c20746f2063757272656e74206f776e6560008201527f7200000000000000000000000000000000000000000000000000000000000000602082015250565b600061253a602183611e30565b9150612545826124de565b604082019050919050565b600060208201905081810360008301526125698161252d565b9050919050565b7f4552433732313a20617070726f76652063616c6c6572206973206e6f7420746f60008201527f6b656e206f776e6572206e6f7220617070726f76656420666f7220616c6c0000602082015250565b60006125cc603e83611e30565b91506125d782612570565b604082019050919050565b600060208201905081810360008301526125fb816125bf565b9050919050565b7f4552433732313a2063616c6c6572206973206e6f7420746f6b656e206f776e6560008201527f72206e6f7220617070726f766564000000000000000000000000000000000000602082015250565b600061265e602e83611e30565b915061266982612602565b604082019050919050565b6000602082019050818103600083015261268d81612651565b9050919050565b7f4552433732313a20696e76616c696420746f6b656e2049440000000000000000600082015250565b60006126ca601883611e30565b91506126d582612694565b602082019050919050565b600060208201905081810360008301526126f9816126bd565b9050919050565b7f4552433732313a2061646472657373207a65726f206973206e6f74206120766160008201527f6c6964206f776e65720000000000000000000000000000000000000000000000602082015250565b600061275c602983611e30565b915061276782612700565b604082019050919050565b6000602082019050818103600083015261278b8161274f565b9050919050565b600081905092915050565b60006127a882611e25565b6127b28185612792565b93506127c2818560208601611e41565b80840191505092915050565b60006127da828561279d565b91506127e6828461279d565b91508190509392505050565b7f4f776e61626c653a206e6577206f776e657220697320746865207a65726f206160008201527f6464726573730000000000000000000000000000000000000000000000000000602082015250565b600061284e602683611e30565b9150612859826127f2565b604082019050919050565b6000602082019050818103600083015261287d81612841565b9050919050565b7f4e4654204d696e74656420416c72656164790000000000000000000000000000600082015250565b60006128ba601283611e30565b91506128c582612884565b602082019050919050565b600060208201905081810360008301526128e9816128ad565b9050919050565b7f4e487b7100000000000000000000000000000000000000000000000000000000600052601160045260246000fd5b600061292a82611ee0565b915061293583611ee0565b9250827fffffffffffffffffffffffffffffffffffffffffffffffffffffffffffffffff0382111561296a576129696128f0565b5b828201905092915050565b6000819050919050565b600061299a61299561299084612975565b612403565b611ee0565b9050919050565b6129aa8161297f565b82525050565b60006060820190506129c56000830186611f75565b6129d26020830185611f75565b6129df60408301846129a1565b949350505050565b6000815190506129f6816120b5565b92915050565b600060208284031215612a1257612a11611d60565b5b6000612a20848285016129e7565b91505092915050565b60006040820190508181036000830152612a438185611e85565b9050612a52602083018461208b565b9392505050565b7f4552433732313a207472616e736665722066726f6d20696e636f72726563742060008201527f6f776e6572000000000000000000000000000000000000000000000000000000602082015250565b6000612ab5602583611e30565b9150612ac082612a59565b604082019050919050565b60006020820190508181036000830152612ae481612aa8565b9050919050565b7f4552433732313a207472616e7366657220746f20746865207a65726f2061646460008201527f7265737300000000000000000000000000000000000000000000000000000000602082015250565b6000612b47602483611e30565b9150612b5282612aeb565b604082019050919050565b60006020820190508181036000830152612b7681612b3a565b9050919050565b6000612b8882611ee0565b9150612b9383611ee0565b925082821015612ba657612ba56128f0565b5b828203905092915050565b7f4f776e61626c653a2063616c6c6572206973206e6f7420746865206f776e6572600082015250565b6000612be7602083611e30565b9150612bf282612bb1565b602082019050919050565b60006020820190508181036000830152612c1681612bda565b9050919050565b7f4552433732313a20617070726f766520746f2063616c6c657200000000000000600082015250565b6000612c53601983611e30565b9150612c5e82612c1d565b602082019050919050565b60006020820190508181036000830152612c8281612c46565b9050919050565b7f4552433732313a207472616e7366657220746f206e6f6e20455243373231526560008201527f63656976657220696d706c656d656e7465720000000000000000000000000000602082015250565b6000612ce5603283611e30565b9150612cf082612c89565b604082019050919050565b60006020820190508181036000830152612d1481612cd8565b9050919050565b7f45524337323155524953746f726167653a2055524920736574206f66206e6f6e60008201527f6578697374656e7420746f6b656e000000000000000000000000000000000000602082015250565b6000612d77602e83611e30565b9150612d8282612d1b565b604082019050919050565b60006020820190508181036000830152612da681612d6a565b9050919050565b600081519050919050565b600082825260208201905092915050565b6000612dd482612dad565b612dde8185612db8565b9350612dee818560208601611e41565b612df781611e74565b840191505092915050565b6000608082019050612e176000830187611f75565b612e246020830186611f75565b612e31604083018561208b565b8181036060830152612e438184612dc9565b905095945050505050565b600081519050612e5d81611d96565b92915050565b600060208284031215612e7957612e78611d60565b5b6000612e8784828501612e4e565b91505092915050565b6000612e9b82611ee0565b91507fffffffffffffffffffffffffffffffffffffffffffffffffffffffffffffffff821415612ece57612ecd6128f0565b5b600182019050919050565b7f4e487b7100000000000000000000000000000000000000000000000000000000600052601260045260246000fd5b6000612f1382611ee0565b9150612f1e83611ee0565b925082612f2e57612f2d612ed9565b5b828204905092915050565b6000612f4482611ee0565b9150612f4f83611ee0565b925082612f5f57612f5e612ed9565b5b828206905092915050565b7f4e487b7100000000000000000000000000000000000000000000000000000000600052603260045260246000fd5b7f4552433732313a206d696e7420746f20746865207a65726f2061646472657373600082015250565b6000612fcf602083611e30565b9150612fda82612f99565b602082019050919050565b60006020820190508181036000830152612ffe81612fc2565b9050919050565b7f4552433732313a20746f6b656e20616c7265616479206d696e74656400000000600082015250565b600061303b601c83611e30565b915061304682613005565b602082019050919050565b6000602082019050818103600083015261306a8161302e565b905091905056fea264697066735822122092fe94d2efd619929b77429d46ba22bd5d34159738c5444b0c49d04f2b74106564736f6c63430008080033",
  "devdoc": {
    "kind": "dev",
    "methods": {
      "approve(address,uint256)": {
        "details": "See {IERC721-approve}."
      },
      "balanceOf(address)": {
        "details": "See {IERC721-balanceOf}."
      },
      "getApproved(uint256)": {
        "details": "See {IERC721-getApproved}."
      },
      "isApprovedForAll(address,address)": {
        "details": "See {IERC721-isApprovedForAll}."
      },
      "name()": {
        "details": "See {IERC721Metadata-name}."
      },
      "owner()": {
        "details": "Returns the address of the current owner."
      },
      "ownerOf(uint256)": {
        "details": "See {IERC721-ownerOf}."
      },
      "renounceOwnership()": {
        "details": "Leaves the contract without owner. It will not be possible to call `onlyOwner` functions anymore. Can only be called by the current owner. NOTE: Renouncing ownership will leave the contract without an owner, thereby removing any functionality that is only available to the owner."
      },
      "safeTransferFrom(address,address,uint256)": {
        "details": "See {IERC721-safeTransferFrom}."
      },
      "safeTransferFrom(address,address,uint256,bytes)": {
        "details": "See {IERC721-safeTransferFrom}."
      },
      "setApprovalForAll(address,bool)": {
        "details": "See {IERC721-setApprovalForAll}."
      },
      "supportsInterface(bytes4)": {
        "details": "See {IERC165-supportsInterface}."
      },
      "symbol()": {
        "details": "See {IERC721Metadata-symbol}."
      },
      "tokenURI(uint256)": {
        "details": "See {IERC721Metadata-tokenURI}."
      },
      "transferFrom(address,address,uint256)": {
        "details": "See {IERC721-transferFrom}."
      },
      "transferOwnership(address)": {
        "details": "Transfers ownership of the contract to a new account (`newOwner`). Can only be called by the current owner."
      }
    },
    "version": 1
  },
  "userdoc": {
    "kind": "user",
    "methods": {},
    "version": 1
  },
  "storageLayout": {
    "storage": [
      {
        "astId": 827,
        "contract": "contracts/FoodieNft.sol:FoodieNft",
        "label": "_name",
        "offset": 0,
        "slot": "0",
        "type": "t_string_storage"
      },
      {
        "astId": 829,
        "contract": "contracts/FoodieNft.sol:FoodieNft",
        "label": "_symbol",
        "offset": 0,
        "slot": "1",
        "type": "t_string_storage"
      },
      {
        "astId": 833,
        "contract": "contracts/FoodieNft.sol:FoodieNft",
        "label": "_owners",
        "offset": 0,
        "slot": "2",
        "type": "t_mapping(t_uint256,t_address)"
      },
      {
        "astId": 837,
        "contract": "contracts/FoodieNft.sol:FoodieNft",
        "label": "_balances",
        "offset": 0,
        "slot": "3",
        "type": "t_mapping(t_address,t_uint256)"
      },
      {
        "astId": 841,
        "contract": "contracts/FoodieNft.sol:FoodieNft",
        "label": "_tokenApprovals",
        "offset": 0,
        "slot": "4",
        "type": "t_mapping(t_uint256,t_address)"
      },
      {
        "astId": 847,
        "contract": "contracts/FoodieNft.sol:FoodieNft",
        "label": "_operatorApprovals",
        "offset": 0,
        "slot": "5",
        "type": "t_mapping(t_address,t_mapping(t_address,t_bool))"
      },
      {
        "astId": 1815,
        "contract": "contracts/FoodieNft.sol:FoodieNft",
        "label": "_tokenURIs",
        "offset": 0,
        "slot": "6",
        "type": "t_mapping(t_uint256,t_string_storage)"
      },
      {
        "astId": 7,
        "contract": "contracts/FoodieNft.sol:FoodieNft",
        "label": "_owner",
        "offset": 0,
        "slot": "7",
        "type": "t_address"
      },
      {
        "astId": 2546,
        "contract": "contracts/FoodieNft.sol:FoodieNft",
        "label": "token",
        "offset": 0,
        "slot": "8",
        "type": "t_contract(ERC20)698"
      },
      {
        "astId": 2550,
        "contract": "contracts/FoodieNft.sol:FoodieNft",
        "label": "tokenCounter",
        "offset": 0,
        "slot": "9",
        "type": "t_uint256"
      }
    ],
    "types": {
      "t_address": {
        "encoding": "inplace",
        "label": "address",
        "numberOfBytes": "20"
      },
      "t_bool": {
        "encoding": "inplace",
        "label": "bool",
        "numberOfBytes": "1"
      },
      "t_contract(ERC20)698": {
        "encoding": "inplace",
        "label": "contract ERC20",
        "numberOfBytes": "20"
      },
      "t_mapping(t_address,t_bool)": {
        "encoding": "mapping",
        "key": "t_address",
        "label": "mapping(address => bool)",
        "numberOfBytes": "32",
        "value": "t_bool"
      },
      "t_mapping(t_address,t_mapping(t_address,t_bool))": {
        "encoding": "mapping",
        "key": "t_address",
        "label": "mapping(address => mapping(address => bool))",
        "numberOfBytes": "32",
        "value": "t_mapping(t_address,t_bool)"
      },
      "t_mapping(t_address,t_uint256)": {
        "encoding": "mapping",
        "key": "t_address",
        "label": "mapping(address => uint256)",
        "numberOfBytes": "32",
        "value": "t_uint256"
      },
      "t_mapping(t_uint256,t_address)": {
        "encoding": "mapping",
        "key": "t_uint256",
        "label": "mapping(uint256 => address)",
        "numberOfBytes": "32",
        "value": "t_address"
      },
      "t_mapping(t_uint256,t_string_storage)": {
        "encoding": "mapping",
        "key": "t_uint256",
        "label": "mapping(uint256 => string)",
        "numberOfBytes": "32",
        "value": "t_string_storage"
      },
      "t_string_storage": {
        "encoding": "bytes",
        "label": "string",
        "numberOfBytes": "32"
      },
      "t_uint256": {
        "encoding": "inplace",
        "label": "uint256",
        "numberOfBytes": "32"
      }
    }
  }
}